:100000006F00A05B000000004A0100004C010000EE
:1000100000000000000000000000000000000000E0
:1000200000000000000000000000000000000000D0
:10003000B805000000000000B80500000000000046
:10004000B8050000B8050000B8050000B8050000BC
:10005000B8050000B8050000B8050000B8050000AC
:10006000B8050000B8050000B8050000B80500009C
:10007000B8050000B8050000B8050000B80500008C
:10008000B8050000B8050000B8050000B80500007C
:10009000B80500006A020000B8050000000000007A
:1000A000511126C022C206C4828282441244A24058
:1000B000310182802A86014593F6150091C232955E
:1000C00085810606F5F9828000000000634E050276
:1000D00063C305042E86AA857D5515C285466378BF
:1000E000B6006356C00006068606E36CB6FE014500
:1000F00063E4C500918D558D85820582F5FA828075
:100100008682C93F2E8582823305A04063D70500D1
:10011000B305B040C1B7B305B0408682653F330533
:10012000A0408282868263C70500634905005D376F
:100130002E858282B305B040E35B05FE3305A04007
:10014000513F3305B0408282000001A0B707EFBEE7
:1001500037E700E0938707083CC701A0EFF25FF4A0
:100160001165111185451305050202C002C202C4C2
:1001700002C602C802CA02CC7925930700027C801D
:10018000371401408D473EC28A85E147130504407C
:100190003EC4E129930700047C808A8591471305BA
:1001A00004403EC4D921F1673744014093870720BA
:1001B0003EC66C00B7070C00130504803ECA02C897
:1001C000231C0100EF009015854513050480EF0006
:1001D000B0217101D9BDEFF2BFEC0565130141FDFE
:1001E00085451305058202D002D202D402C402C69C
:1001F0002318010002CA02CC231E010002C002C261
:10020000192537150140114791470C10130505407A
:100210003AD42310F1029129DD47373401403EC41E
:10022000C167FD172C00130504C03EC6C925114740
:1002300085444C08130504C0F88626CC02CAEF009A
:100240006079930750120A857C80448126C24D2133
:100250000546130504C08945EF00C06F85451305A9
:1002600004C0E92D1301C10289B5611126C0B7345C
:1002700001408945138504C022C2EF00F00715CD67
:1002800037040020130484031C2093F7F70F9DEB21
:10029000138504C0EF00D005B7070020239EA702F6
:1002A0008945138504C0C12585471CA03735014009
:1002B0008945130505C0EF00B005124482442101B1
:1002C000730020301C200547E312F7FE138504C09D
:1002D000EF001002B7070020239DA7028145138578
:1002E00004C051258947D1B7EFF29FDB51118545F5
:1002F00013050002092BA1477C8037150140C14737
:100300003EC48A858D47130505403EC22311010076
:10031000A92E310159BBEFF2BFD837140140B707FE
:1003200000200146A14513050440238C0702652ED9
:100330000945EF0030110546A14513050440652627
:100340002945EF0030100146A14513050440612EF8
:10035000A9BBEFF2FFD45111E52AEF00700B69370A
:10036000F53B953DA3050100114481446D37E167DC
:100370009387176A094637070020930687038C2264
:100380006304B600FD17E5FB9C2289466393F602E1
:10039000B7070020B706002083D7A70383D6C6037C
:1003A000958FC207C183BE949C85850793F7F70F8D
:1003B000DC857D14130540061374F40FEF00300C38
:1003C00055F49C8593F7F70FA1C78C85268561644A
:1003D000113342059305306B4181E9399305046A75
:1003E0002AC2393B9305803EF53192472AC09305D6
:1003F000046A3E85C5310246AA85371500001305FB
:100400008530EF0090691305803EEF00500799BFDB
:100410003715000013050532EF00506AEDB7EFF213
:100420003FC8371402401C403707FFF8611193E7BB
:1004300017001CC05C404145F98F5CC01C40370769
:10044000F7FE7D17F98F1CC01C403707FCFF7D1796
:10045000F98F1CC05C4041777D17F98F5CC0B707EE
:100460009F001CC4FD241C4C3706020093E70702C2
:100470001CCCB717014003A70740938607401377AA
:10048000F7F023A0E74003A707401367070823A05E
:10049000E74089479CCA02C002C21C4C3707014092
:1004A000A16693E717001CCC5C43D58F5CC31C404E
:1004B0004167B7160240D98F1CC009679C42F18F73
:1004C0003EC2824785073EC0924781E78247E39755
:1004D000E7FEB71702409C431397E70063580706EF
:1004E00085473EC2124785476310F706B72702408B
:1004F0009843C176FD16719B98C398431367170004
:1005000098C3B7170240D843D8C3D843758FD8C310
:10051000D843C166558FD8C39843B7060001558F9D
:1005200098C3984393166700E3DD06FED843B716D9
:100530000240719BD8C3D84313672700D8C3214713
:10054000DC42B18BE39EE7FE210185B602C259BFB2
:10055000EFF21FB5371702405C4337040020914685
:10056000B18B130404016385D700A1466380D704CF
:10057000B7376E01938707601CC0B7160240DC4294
:100580000840918313F7F700B7070020938707000F
:10059000BA978C23DC4293F5F50F93F7070833578E
:1005A000B50099E3053E2A8718C001B65C43B777CA
:1005B000DC02938707C0C9B701A09701002093818F
:1005C000E127138181FC1305000A9705002093851C
:1005D00065A3170600201306E6A263FAC50083226E
:1005E000050023A0550011059105E3EAC5FE171586
:1005F0000000130525D5970500209385A5A01706B3
:1006000000201306A6A363FAC5008322050023A0D9
:10061000550011059105E3EAC5FE170500201305F5
:10062000E5A1938501816377B500232005001105BD
:10063000E36DB5FEB722000093820288739002300A
:100640008D4273904280970200009382A29B93E2B6
:10065000320073905230EFF09FDC970200009382DB
:1006600082CF7390123473002030944593F70601C3
:1006700093F2F60081C7DC41B3E2F20083D30500B8
:1006800093F7F30FA5C303230500611122C226C00F
:100690008147130480029304800405473316F70052
:1006A00033F7C3006312E602939527003D473317E3
:1006B000B7001347F7FF33736700B395B20033E316
:1006C0006500639D860050C985072147E397E7FCD5
:1006D000124423206500824421018280E39696FE25
:1006E00010C9DDB7828019C20CC982804CC98280D2
:1006F00083A68180854718216390F6021C31639C94
:10070000D7023C219A0793E707F8B7E600E093F792
:10071000F70FBA962380F6408546935757003397D4
:10072000E600544189CE938707048A07B7E600E0C4
:10073000B69798C38280EDF33C219A07F9B7938767
:100740000706B7E600E08A07B69798C30F100000C7
:100750008280371702401C430E0593F777F05D8DBA
:1007600008C38280EFF2DF93371702405C43914663
:100770002A84B18B6385D700A1466380D708B73739
:100780006E01938707601CC0B7160240DC4291835C
:1007900013F7F700B707002093878702BA978C23D7
:1007A000DC42184093F5F50F93F707083355B7006F
:1007B00081E73A85EFF01F9248C008C448C4B717D4
:1007C0000240DC438D46AD83FD8B13D737008A078B
:1007D000F18BD98F13F6370113F7370063F4C60096
:1007E000138747FFB707002093874701BA978C23E9
:1007F000EFF05F8E08C86FF05F8B5C43B777DC0269
:10080000938707C049B799C5371702401C4F5D8DC4
:1008100008CF8280B7170240984F1345F5FF798DB6
:1008200088CF82801E319206C207C183F99BC2071E
:10083000C1831EB11A2D1E31035385014207418326
:10084000336366001377C7F0558E518FB73601407A
:10085000C2074207231C6500938606C0C1834183FB
:100860006306D500B70600406319D500F59BCD8F10
:1008700093E717001AAD1EB18280D59BCDBF1E3104
:1008800022064206C207C183BD9BC207C1831EB1B7
:100890000353850185679387F7CF1A31B3F7670054
:1008A000035385014182B20633636600558ED18FB2
:1008B000B73601404207C207231C6500938606C075
:1008C0004183C1836306D500B7060040631DD50090
:1008D00092051377F7FDD98DC205C18193E5050116
:1008E0001EAD0EB182801377F7F5D98DC5BF1E21DD
:1008F00037370140130707C0C207C1836306E5000D
:10090000370700406316E500BA2193F7F7F8D98F4F
:10091000FA2193F7F7CFC207C183D98F1EA1DE2139
:100920005EB59E211EB5B7370140938707C063149B
:10093000F5009C251EB985475EA982801E2189C5C8
:1009400093E717001EA18280C207C183F99BC207EB
:10095000C183CDBF5E2501C6DD8D4EA5828093C5C6
:10096000F5FFFD8DDDBF1E31C207C183F59BDD8D17
:100970000EB182801E2DC207C183CD9BC207C183E9
:100980001EAD1E2DDD8D0EAD82801A2DFD77938755
:10099000F73FF98F1EAD1E2DA205DD8DC205C18169
:1009A0000EAD82805E2DC207C183CD9BC207C1837D
:1009B0005EAD5E2DDD8D4EAD82805A2DFD77938725
:1009C000F73FF98F5EAD5E2DA205DD8DC205C181B9
:1009D0004EAD8280EFF2CFEC9A212A84AE84BE2104
:1009E000D221962501EBBE85353DEE202285593773
:1009F0006FF0AFEB91456318B700BE854935EE2027
:100A000022856137F5B72145EE20631AA7061A3013
:100A10009206420741831377F7EF420741831AB0EA
:100A20004A2C1A300353C401420541811375C5F0A5
:100A300033636600498E558EB73601404207420641
:100A4000231E6400938606C0418341826306D4005E
:100A5000B7060040631FD400A2071377F7DFD98FD2
:100A6000C207C18393E7071052AC1EB022851D3F19
:100A700041B7FD769386F65F758FD98FE5B70A305B
:100A80007D777D17698F1AB04A2C05671307F7CF5A
:100A900003530402698F22064A2C42064182B206A1
:100AA000518D558E598E37370140420342064AAC6C
:100AB000130707C01353030141826306E40037079D
:100AC00000406312E40279777D17B2073373E300C5
:100AD000B3E76700C207C1830567D98F52AC1EB068
:100AE0002285E13D31B71373F3DFB3E76700EDB75C
:100AF00048594205418182801E294A25ED8F4205D1
:100B0000418189C76D8D3335A00082800145828087
:100B100093C5F5FFC205C1810EA98280EFF24FD8BF
:100B20001629F577FD17F58FF621DA252111D58FD6
:100B30001EA95625FD779387379FF58FD6212A84E6
:100B40002EC0D58F9625D58FB625D58F5EA55E296B
:100B5000C207C18393F7F7CF5D8F5AA948001931B7
:100B6000B74701409387078082456312F406C24766
:100B70005A24139517003E9542070E0541873E956E
:100B80008C41635807048605EFF0CFD493054006E7
:100B90002AC0EFF02FD482479314450093054006F6
:100BA0003E85EFF0EFD55E24C207C18763D507020B
:100BB0000E059305400613052503EFF0AFD11D89FF
:100BC000C98CC204C18006A461016FF00FCEB24788
:100BD00045B78A0555BF1205930540061305250341
:100BE000EFF04FCF3D89E9BF91C55E250967D98FE9
:100BF0005EA582805A25F977FD17F98FD5BF93F549
:100C0000F51F4EA182800A216D8D3335A0008280B0
:100C1000EFF20FC9B707002003A50701B7157A0047
:100C200093850520EFF00FCB1375F50F2387A18077
:100C300093175500898F8A073E950E052396A1804C
:100C40006FF0AFC6EFF2CFC537F400E05C40AA8585
:100C5000F99B5CC003C5E180EFF0CFC508C8232431
:100C600004001C4093E717001CC0B7F700E0D8430E
:100C7000058B75DF9843799B98C36FF00FC3EFF234
:100C80002FC237F400E05C40AA85F99B5CC003D515
:100C9000C180EFF02FC208C8232404001C4093E752
:100CA00017001CC0B7F700E0D843058B75DF9843E9
:100CB000799B98C36FF06FBFEFF28FBE7111AE8456
:100CC0000144635DC402B7470140138707803A853A
:100CD0009305000432C0053FB747014013870780E2
:100CE000024675D533878400830507001385078086
:100CF0000504C205C18121370246E1B732851101E1
:100D00006FF0AFBA411106C62EC00DCD1841AA87AB
:100D100005C358417D5511CB8546631BD7009847C5
:100D20002300070023A207000545B240410182804D
:100D30009847824614A39847050798C7D8437D175C
:100D4000D8C3DDB705468A85853FF9BF011122CC9E
:100D50002EC206CE26CA2A84814793050002634527
:100D600006029245BE95838505008DE563D8C702CE
:100D700063D4E702198E1305000293F526002AC0FA
:100D800089C501E7930500032EC0858A814495EA51
:100D9000B2840DA08507F1B71D8EF1BF0146E1BFFA
:100DA000824522853AC832C63EC4A93FA247324690
:100DB0004247FD14E34690FEB2846353060081442B
:100DC000058E63C7E702A68792463387974036971A
:100DD0008305070095EDB2846344900463530600D5
:100DE0000146F2406244D2443305F6000561828038
:100DF0001D8FBA8793050003228532C83EC63AC4C8
:100E00001137B24722474246FD17EDF7BA9465BF46
:100E1000228532C63EC4FD35A247324685076DB7EE
:100E20008245228532C43EC2F13DFD1422469247DE
:100E300065B7397106DE22DC26DA3EC232833A8695
:100E400089ED92469307000301476C08FC86FD3D3F
:100E5000F2506254D25421618280AA843684AE87D3
:100E600091CA294701446317E30063D50500B3071E
:100E7000B04005448646A309010213073103938657
:100E800066FC36C49A853E8532CA3AC81AC63EC048
:100E9000EFF00FA7A546824732434247524663D43C
:100EA000A600A2463695130505039306F7FFA30F88
:100EB000A7FE9A853E8532CC3ACA1AC83EC636C0CD
:100EC000EFF04FA1B24742435247624663F96704CD
:100ED00001CC29CA9247898BB1C79305D0022685D8
:100EE00032C40D3522467D169247918B95C3064735
:100EF0009307100632C4930500032685631EF7028C
:100F00001135930580072685F53B2246090479169D
:100F10001647924682452685153D229515BFAA871C
:100F200002478DB782469307D0020144A38FF6FE95
:100F30009307E7FF3EC04DBFF13393058005E1B74E
:100F40000145828001458280130181FD22D026CE99
:100F500006D22AC4AE82328402C68144838502004E
:100F600089EDA24781C781453E85693B9250025475
:100F70002685F24413018102828093075002638820
:100F8000F500224516C88504B53BC24239A88387BF
:100F9000120013871200639CB7002245930550028C
:100FA0003AC88D3342478504BA82850245BFD5DBF6
:100FB0009306B0026389D70463C8F6009306300233
:100FC0006386D704814705A09306D002638AD700C1
:100FD00093060003E398D7FE13872200894721A0D8
:100FE000138722008547830607001306B002638338
:100FF000C6046341D60213063002638BC602BA826E
:101000000145A54681A0138722006DBF13872200EA
:101010009147D1BF1306D0026389C60013060003AF
:10102000E39FC6FC93E7270031A005078547C1BFB2
:1010300093E747000507E1B713162500329506052B
:101040003A95850203860200130706FD9375F70F94
:10105000E3F4B6FE1307E0029946631EE60085023C
:101060008146A54503860200130606FD1377F60F99
:1010700063F5E50236C6038702001306A006630D7A
:10108000C70A6343E6021306C0046307C70A1306D0
:101090008006630CC70881452DA813972600BA96D1
:1010A0008606B29685027DBF130640076306C70811
:1010B0001306A0076302C7081306C0068145631A1A
:1010C000C700038612008D456314E6008502914532
:1010D000850203860200930300061307100663C40B
:1010E000C300130710049303700663C4C30693037D
:1010F0005006635376189303700463C1C3049305C9
:101100005004635BB61613073004E310E6EA184098
:101110009303440016CA230CE1001EC8A30C01006F
:101120000147BE862A862C0849A8038612008145FD
:10113000E311E6FA890271BF8502B1BF930630065A
:10114000E307D6FC63CEC606930680056303D6028A
:10115000A9BD930630076304D60463CBC602930689
:10116000F0066302D60E9306000793E74700E31EDE
:10117000D6E29146639FD50A930384000C40504009
:1011800016CA3AC23EC01EC8AA870147C146B9A0C6
:10119000930650076308D6069306800745BF18409C
:1011A000B7160000930344009385863311C3BA85B4
:1011B000324716CA1EC8BE862A862245413E0DA069
:1011C00091466394D502930384000C40504016CAA4
:1011D0003AC23EC01EC8AA870547A94622458D339C
:1011E000C243AA941E84D242C9B3B2460C4016C868
:1011F00036C23AC011042A87854629462245153948
:10120000AA9461B39146639DD500930384000C407A
:10121000504016CA3AC23EC01EC8AA87014775BFD1
:10122000B2460C4016C836C23AC011042A8781461D
:10123000E9B7B24616C80C40414636C23AC011045E
:101240002A87814665BF9146639ED500930384003B
:101250000C40504016CA3AC23EC01EC8AA87014779
:10126000A146ADBFB2460C4016C836C23AC0110402
:101270002A878146214659B70C4013068400404016
:101280003AC22A87224532C83EC02286B687A9467E
:1012900016CA4D39AA944244B9B71301C1FD2EC8EC
:1012A00032CAAA851008014506C636CC3ACE3ED0D1
:1012B00032C05939B240130141028280411122C427
:1012C00026C206C61C21AA840144DC8183073100A2
:1012D000050499EFA9479305310005460145DC81D6
:1012E000EFF09F9D2285B2402244924441018280CA
:1012F0000546930531000145EFF01F9CB38784003C
:101300009C23DC81E1B7000044697374616E6365FE
:101310003A2025752E2530327520636D0D0A0000A8
:101320004D6561737572656D656E742054696D6588
:101330006F75740D00000000286E756C6C2900003C
:101340000102030405060708010203040506070855
:10135000006CDC020204060804080C1008101820B7
:101360001020304020406080010203040506070879
:08137000010203040506070851
:00000001FF
