:100000006F00C04200000000320100003401000017
:1000100000000000000000000000000000000000E0
:1000200000000000000000000000000000000000D0
:100030002A040000000000002A0400000000000064
:100040002A0400002A0400002A0400002A040000F8
:100050002A0400002A0400002A0400002A040000E8
:100060002A0400002A0400002A0400002A040000D8
:100070002A0400002A0400002A0400002A040000C8
:100080002A0400002A0400002A0400002A040000B8
:100090002A0400002A0400002A04000000000000D6
:1000A000511126C022C206C4828282441244A24058
:1000B00031018280634E050263C305042E86AA8542
:1000C0007D5515C285466378B6006356C0000606A6
:1000D0008606E36CB6FE014563E4C500918D558D3F
:1000E00085820582F5FA82808682C93F2E858282CA
:1000F0003305A04063D70500B305B040C1B7B305D1
:10010000B0408682653F3305A0408282868263C705
:100110000500634905005D372E858282B305B04036
:10012000E35B05FE3305A040513F3305B0408282BA
:10013000000001A0B707EFBE37E700E0938707088C
:100140003CC701A0EFF2DFF51165111185451305DC
:10015000050202C002C202C402C602C802CA02CC20
:100160003123930700027C80371401408D473EC243
:100170008A85E147130504403EC48D269307000499
:100180007C808A859147130504403EC4812EF16727
:1001900037440140938707203EC66C00B7070C0028
:1001A000130504803ECA02C8231C0100EF00C07979
:1001B000854513050480EF00F0057101FDB5EFF2F0
:1001C0003FEE0565130141FD85451305058202D00B
:1001D00002D202D402C402C62318010002CA02CC11
:1001E000231E010002C002C25121371501401147F0
:1001F00091470C10130505403AD42310F102F92C55
:100200009307F002373401403EC4C167FD172C004C
:10021000130504C03EC63D2B114785444C08130509
:1002200004C0F88626CC02CA1125930750120A850D
:100230007C80448126C20D260546130504C08945ED
:10024000AD2B8545130504C0A92B1301C102B1BD17
:10025000EFF21FE551118545130500020129A14761
:100260007C8037150140C1473EC48A858D47130500
:1002700005403EC223110100952431013DB5EFF246
:100280003FE28122EF00607AE1376D3D0D3F01A032
:10029000EFF21FE1371402401C403707FFF86111ED
:1002A00093E717001CC05C404145F98F5CC01C40BF
:1002B0003707F7FE7D17F98F1CC01C403707FCFF7E
:1002C0007D17F98F1CC05C4041777D17F98F5CC0AA
:1002D000B7079F001CC4E5241C4C3706020093E7B7
:1002E00007021CCCB717014003A7074093860740BD
:1002F0001377F7F023A0E74003A707401367070829
:1003000023A0E74089479CCA02C002C21C4C3707A1
:100310000140A16693E717001CCC5C43D58F5CC3FA
:100320001C404167B7160240D98F1CC009679C4228
:10033000F18F3EC2824785073EC0924781E78247E0
:10034000E397E7FEB71702409C431397E700635813
:10035000070685473EC2124785476310F706B72751
:1003600002409843C176FD16719B98C3984313676A
:10037000170098C3B7170240D843D8C3D843758F26
:10038000D8C3D843C166558FD8C39843B706000178
:10039000558F98C3984393166700E3DD06FED84354
:1003A000B7160240719BD8C3D84313672700D8C340
:1003B0002147DC42B18BE39EE7FE2101FDB102C281
:1003C00059BFEFF2FFCD371702405C4337040020DE
:1003D0009146B18B130404016385D700A146638065
:1003E000D704B7376E01938707601CC0B716024069
:1003F000DC420840918313F7F700B707002093878A
:100400000700BA978C23DC4293F5F50F93F70708A2
:100410003357B50099E35D312A8718C079B15C4341
:10042000B777DC02938707C0C9B701A09701002006
:100430009381C140138181FC1305000A97050020B8
:10044000938545BC170600201306C6BB63FAC5009A
:100450008322050023A0550011059105E3EAC5FE9E
:10046000170500001305856097050020938585B961
:1004700017060020130686BC63FAC5008322050018
:1004800023A0550011059105E3EAC5FE17050020DC
:100490001305C5BA938581806377B50023200500D5
:1004A0001105E36DB5FEB7220000938202887390B8
:1004B00002308D427390428097020000938282B492
:1004C00093E2320073905230EFF09FDC970200000D
:1004D000938222DB7390123473002030944593F79B
:1004E000060193F2F60081C7DC41B3E2F20083D348
:1004F000050093F7F30FA5C303230500611122C282
:1005000026C08147130480029304800405473316F4
:10051000F70033F7C3006312E602939527003D47C7
:100520003317B7001347F7FF33736700B395B20073
:1005300033E36500639D860050C985072147E39733
:10054000E7FC124423206500824421018280E39667
:1005500096FE10C9DDB78280B707002083A6870307
:10056000854718216390F6021C31639CD7023C2119
:100570009A0793E707F8B7E600E093F7F70FBA9604
:100580002380F6408546935757003397E600544141
:1005900089CE938707048A07B7E600E0B69798C329
:1005A0008280EDF33C219A07F9B793870706B7E6F7
:1005B00000E08A07B69798C30F10000082803717B3
:1005C00002401C430E0593F777F05D8D08C38280CF
:1005D000EFF21FAD371702405C4391462A84B18B7E
:1005E0006385D700A146638DD706B7376E01938721
:1005F00007601CC0B7160240DC42918313F7F70076
:10060000B707002093878702BA978C23DC421840F3
:1006100093F5F50F93F707083355B70099E33A853B
:10062000713C48C008C448C4B7170240DC438D463B
:10063000AD83FD8B13D737008A07F18BD98F13F663
:10064000370113F7370063F4C600138747FFB70776
:10065000002093874701BA978C238D3408C8B1B422
:100660005C43B777DC02938707C061B799C537173A
:1006700002401C4F5D8D08CF8280B7170240984F13
:100680001345F5FF798D88CF82801E319206C2070F
:10069000C183F99BC207C1831EB11A2D1E310353BA
:1006A000850142074183336366001377C7F0558E97
:1006B000518FB7360140C2074207231C650093865D
:1006C00006C0C18341836306D500B70600406319A5
:1006D000D500F59BCD8F93E717001AAD1EB1828030
:1006E000D59BCDBF1E3122064206C207C183BD9BEA
:1006F000C207C1831EB10353850185679387F7CF76
:100700001A31B3F76700035385014182B2063363A0
:100710006600558ED18FB73601404207C207231CB1
:100720006500938606C04183C1836306D500B70682
:100730000040631DD50092051377F7FDD98DC205E2
:10074000C18193E505011EAD0EB182801377F7F5E7
:10075000D98DC5BF1E2137370140130707C0C20717
:10076000C1836306E500370700406316E500BA2140
:1007700093F7F7F8D98FFA2193F7F7CFC207C18320
:10078000D98F1EA1DE215EB59E211EB5B73701406F
:10079000938707C06314F5009C251EB985475EA9A1
:1007A00082801E2189C593E717001EA18280C2079F
:1007B000C183F99BC207C183CDBF5E2501C6DD8D14
:1007C0004EA5828093C5F5FFFD8DDDBF1E2DC207AE
:1007D000C183CD9BC207C1831EAD1E2DDD8D0EAD25
:1007E00082801A2DFD779387F73FF98F1EAD1E2D5E
:1007F000A205DD8DC205C1810EAD82805E2DC207CE
:10080000C183CD9BC207C1835EAD5E2DDD8D4EAD34
:1008100082805A2DFD779387F73FF98F5EAD5E2D6D
:10082000A205DD8DC205C1814EAD8280EFF25F87EA
:100830009A212A84AE84BE21D221962501EBBE8561
:10084000A935EE20228559376FF03F869145631810
:10085000B700BE85413DEE2022856137F5B72145C1
:10086000EE20631AA7061A309206420741831377D7
:10087000F7EF420741831AB04A2C1A300353C401E0
:10088000420541811375C5F033636600498E558E6C
:10089000B736014042074206231E6400938606C015
:1008A000418341826306D400B7060040631FD40031
:1008B000A2071377F7DFD98FC207C18393E7071029
:1008C00052AC1EB022851D3F41B7FD769386F65F80
:1008D000758FD98FE5B70A307D777D17698F1AB08C
:1008E0004A2C05671307F7CF03530402698F2206CA
:1008F0004A2C42064182B206518D558E598E3737A9
:100900000140420342064AAC130707C013530301D8
:1009100041826306E400370700406312E4027977FE
:100920007D17B2073373E300B3E76700C207C183E3
:100930000567D98F52AC1EB02285E13D31B71373E4
:10094000F3DFB3E76700EDB7EFF28FF51629F57720
:10095000FD17F58FF621DA252111D58F1EA9562511
:10096000FD779387379FF58FD6212A842EC0D58FA8
:100970009625D58FB625D58F5EA55E29C207C18382
:1009800093F7F7CF5D8F5AA948009931B7470140D7
:100990009387078082456312F406C2475A24139551
:1009A00017003E9542070E0541873E958C416358DE
:1009B00007048605EFF08FF0930540062AC0EFF09C
:1009C000EFEF824793144500930540063E85EFF014
:1009D000AFF15E24C207C18763D507020E059305F8
:1009E000400613052503EFF06FED1D89C98CC20485
:1009F000C18006A461016FF04FEBB24745B78A058D
:100A000055BF12059305400613052503EFF00FEBC4
:100A10003D89E9BF91C55E250967D98F5EA58280B2
:100A20005A25F977FD17F98FD5BFEFF26FE7B707B2
:100A3000002003A50701B7157A0093850520EFF084
:100A4000EFE71375F50FB7070020238FA702931761
:100A50005500898F8A073E950E05B7070020239E13
:080A6000A7026FF08FE4000013
:100A68000102030405060708010203040506070836
:100A7800006CDC020204060804080C100810182098
:100A8800102030402040608001020304050607085A
:080A9800010203040506070832
:00000001FF
